:0A18080000008C31072C8F31E02F17
:101BEC004034FE0012001E00FE0BF82D0034FC30B9
:101BFC0021009900903027009B000800F80076081F
:101C0C00F7007708F00078088E31942608007F34AE
:101C1C007F347F347F347F347F347F347F347F3420
:101C2C007F34F00021001D141D0883399D001D0810
:101C3C0070049D000830890B212E21009D149D18E5
:101C4C00252E1D101C08080057302100950022007D
:101C5C008C01043023008C000F3021008C002200FA
:101C6C008D0123008D01F03021008D0022008E01AA
:101C7C0023008E0121008E010800F601F11F4D2E6C
:101C8C00F009F109F00A0319F10AF601F60AF31F3B
:101C9C00582EF209F309F20A0319F30A0130F40081
:101CAC007408F606F701F801700871040319872E01
:101CBC00F501F50AF11B6C2E0130F035F10D890B95
:101CCC00632E0130F4007408F507602E0130F735EF
:101CDC00F80D890B6D2E71087302031D772E700899
:101CEC007202031C7E2E7008F2027108F33B77140B
:101CFC000130F136F00C890B7F2E0130F502031DFB
:101D0C006C2E760803198F2EF709F809F70A0319B8
:101D1C00F80A7808F1007708F0000800F300700862
:101D2C000319080073087002031C9F2EF401F501BF
:101D3C00A62E7D08F100F2017108F4007208F5007E
:101D4C007408F10071082000A0000830F10071083F
:101D5C00FB007B080319C12E0E1700000000A01F0A
:101D6C000E13000000000000A0350E130130FB0222
:101D7C007B08031DB22E7C08F10071082000A00026
:101D8C000830F1007108FB007B080319DC2E0E17DC
:101D9C0000000000A01F0E13000000000000A03582
:101DAC000E130130FB027B08031DCD2E20002408EE
:101DBC00F1007108A0000830F1007108FB007B08ED
:101DCC000319F72E0E1700000000A01F0E130000C1
:101DDC0000000000A0350E130130FB027B08031D30
:101DEC00E82E0130F002952E8D31FD258E318E318D
:101DFC002A268E3104302000B6001C30890B042FAB
:101E0C00B60B042F00002000A801A701A601A50114
:101E1C000C308E3117268E312000B6003608A90002
:101E2C002908B6002B082C3E860087013608810055
:101E3C0009302B0603192A2F2B08013EF90000301C
:101E4C0003180130FA002C2FF901FA017908B600B9
:101E5C003608AB00FB010A307B020318982F7B0875
:101E6C002C3E86008701010828020318522F2608F1
:101E7C00B6003608A5002708B6003608A6002808C4
:101E8C00B6003608A7007B082C3E860087010108A7
:101E9C00B6003608A800902F7B082C3E86008701E0
:101EAC000108270203186B2F2608B6003608A50078
:101EBC002708B6003608A6007B082C3E8600870152
:101ECC000108B6003608A700902F7B082C3E860030
:101EDC008701010826020318802F2608B600360851
:101EEC00A5007B082C3E860087010108B600360849
:101EFC00A600902F7B082C3E860087010108250246
:101F0C000318902F7B082C3E860087010108B60031
:101F1C003608A5000130B6003608FB070A307B02F4
:101F2C00031C352F0430F0000030F1002508B600FA
:101F3C00B7012608B800B90128082707BA00BB0169
:101F4C00BB0D38083A07BC0039083B3DBD003608CC
:101F5C003C07F20037083D3DF3008E3143268E31AD
:101F6C0070082000BE003E08AA00003084009130AA
:101F7C0085000008B6003608F6002A08003E8400EA
:101F8C0090300318013E850000088E3104268E31F6
:101F9C0002302000B7008630B6009930890BD42F60
:101FAC00B60BD42FB70BD42F20008C19092F8031EE
:101FBC001C28092F8D31F6258F31FD000D30840042
:101FCC008E3085002C308600003087000A308D3131
:101FDC00F725FB01FC01A001A101A201A301A401B1
:101FEC00A501A601A701A801A901AA01AB01200026
:101FFC008E31FA2E003400340034003400340034B6
:10200C000034003400340034003400340034003424
:10201C000034003400340034003400340034003414
:10202C000034003400340034003400340034003404
:10203C0000340034003400340034003400340034F4
:10204C0000340034003400340034003400340034E4
:10205C0000340034003400340034003400340034D4
:10206C0000340034003400340034003400340034C4
:10207C0000340034003400340034003400340034B4
:10208C0000340034003400340034003400340034A4
:10209C000034003400340034003400340034003494
:1020AC00003400340134013401340234023402347B
:1020BC000234033403340334043404340434043459
:1020CC000534053405340634063406340634073436
:1020DC000734073408340834083408340934093414
:1020EC0009340A340A340A340A340B340B340B34F2
:1020FC000C340C340C340C340D340D340D340E34CF
:10210C000E340E340E340F340F340F3410341034AC
:10211C00103410341134113411341234123412348A
:10212C001234133413341334143414341434143468
:10213C001534153415341634163416341634173445
:10214C001734173418341834183418341934193423
:10215C0019341A341A341A341A341B341B341B3401
:10216C001C341C341C341C341D341D341D341E34DE
:10217C001E341E341E341E341E341E341E341E34C3
:10218C001E34003400340034003400340034003485
:10219C000034003400340034003400340034003493
:1021AC000034003400340034003400340034003483
:1021BC000034003400340034003400340034003473
:1021CC000034003400340034003400340034003463
:1021DC000034003400340034003400340034003453
:1021EC000034003400340034003400340034003443
:0621FC00003400341E3423
:020000040001F9
:04000E0084C9CFDFF3
:00000001FF
