:0A18080000008C31072C8F31E02F17
:1018180040347F347F347F347F347F347F347F3467
:101828007F347F347F3457302100950022008C01AB
:10183800043023008C000F3021008C0022008D0121
:1018480023008D01F03021008D0022008E0123003D
:101858008E0121008E010800F300700803190800AA
:1018680073087002031C3B2CF401F501422C7D081F
:10187800F100F2017108F4007208F5007408F10033
:1018880071082000A0000830F1007108FB007B08F7
:1018980003195D2C0E1400000000A01F0E1000009C
:1018A80000000000A0350E100130FB027B08031D6C
:1018B8004E2C7C08F10071082000A0000830F100CF
:1018C8007108FB007B080319782C0E140000000037
:1018D800A01F0E10000000000000A0350E100130FF
:1018E800FB027B08031D692C20002408F100710805
:1018F800A0000830F1007108FB007B080319932C45
:101908000E1400000000A01F0E10000000000000D0
:10191800A0350E100130FB027B08031D842C01301A
:10192800F002312CF30070080319080073087002E4
:10193800031CA12CF401F501A82C7D08F100F2018B
:101948007108F4007208F5007408F10071082000AD
:10195800A0000830F1007108FB007B080319C32CB4
:101968008E1400000000A01F8E1000000000000070
:10197800A0358E100130FB027B08031DB42C7C08B7
:10198800F10071082000A0000830F1007108FB0088
:101998007B080319DE2C8E1400000000A01F8E1097
:1019A800000000000000A0358E100130FB027B080B
:1019B800031DCF2C20002408F1007108A000083076
:1019C800F1007108FB007B080319F92C8E14000044
:1019D8000000A01F8E10000000000000A0358E102F
:1019E8000130FB027B08031DEA2C0130F002972C22
:1019F800F30070080319080073087002031C072D10
:101A0800F401F5010E2D7D08F100F2017108F400D2
:101A18007208F5007408F10071082000A000083071
:101A2800F1007108FB007B080319292D0E14000032
:101A38000000A01F0E10000000000000A0350E10CE
:101A48000130FB027B08031D1A2D7C08F100710888
:101A58002000A0000830F1007108FB007B08031982
:101A6800442D0C1600000000A01F0E1000000000FE
:101A78000000A0350E100130FB027B08031D352D38
:101A880020002408F1007108A0000830F100710856
:101A9800FB007B0803195F2D0E1400000000A01F37
:101AA8000E10000000000000A0350E100130FB02EF
:101AB8007B08031D502D0130F002FD2CF300700847
:101AC8000319080073087002031C6D2DF401F50159
:101AD800742D7D08F100F2017108F4007208F50018
:101AE8007408F10071082000A0000830F1007108A6
:101AF800FB007B0803198F2D8E1500000000A01F26
:101B08008E11000000000000A0358E110130FB028C
:101B18007B08031D802D7C08F10071082000A000BF
:101B28000830F1007108FB007B080319AA2D8E15F7
:101B380000000000A01F8E11000000000000A0356A
:101B48008E110130FB027B08031D9B2D2000240809
:101B5800F1007108A0000830F1007108FB007B0853
:101B68000319C52D8E1500000000A01F8E1100005E
:101B780000000000A0358E110130FB027B08031D18
:101B8800B62D0130F002632DF30070080319080028
:101B980073087002031CD32DF401F501DA2D7D08BA
:101BA800F100F2017108F4007208F5007408F10000
:101BB80071082000A0000830F1007108FB007B08C4
:101BC8000319F52D0E1600000000A01F0E120000CC
:101BD80000000000A0350E120130FB027B08031D37
:101BE800E62D7C08F10071082000A0000830F10003
:101BF8007108FB007B080319102E0E160000000068
:101C0800A01F0E12000000000000A0350E120130C7
:101C1800FB027B08031D012E20002408F100710837
:101C2800A0000830F1007108FB007B0803192B2E77
:101C38000E1600000000A01F0E1200000000000099
:101C4800A0350E120130FB027B08031D1C2E01304B
:101C5800F002C92DF3007008031908007308700218
:101C6800031C392EF401F501402E7D08F100F20124
:101C78007108F4007208F5007408F100710820007A
:101C8800A0000830F1007108FB007B0803195B2EE7
:101C98008E1600000000A01F8E1200000000000039
:101CA800A0358E120130FB027B08031D4C2E7C08E8
:101CB800F10071082000A0000830F1007108FB0055
:101CC8007B080319762E8E1600000000A01F8E12C6
:101CD800000000000000A0358E120130FB027B08D6
:101CE800031D672E20002408F1007108A0000830A9
:101CF800F1007108FB007B080319912E8E16000075
:101D08000000A01F8E12000000000000A0358E12F7
:101D18000130FB027B08031D822E0130F0022F2EBA
:101D2800F30070080319080073087002031C9F2E43
:101D3800F401F501A62E7D08F100F2017108F40006
:101D48007208F5007408F10071082000A00008303E
:101D5800F1007108FB007B080319C12E0E17000063
:101D68000000A01F0E13000000000000A0350E1395
:101D78000130FB027B08031DB22E7C08F1007108BC
:101D88002000A0000830F1007108FB007B0803194F
:101D9800DC2E0E1700000000A01F0E13000000002C
:101DA8000000A0350E130130FB027B08031DCD2E69
:101DB80020002408F1007108A0000830F100710823
:101DC800FB007B080319F72E0E1700000000A01F68
:101DD8000E13000000000000A0350E130130FB02B6
:101DE8007B08031DE82E0130F002952E9731592704
:101DF8008E318C3117248E3104302000B6001C300F
:101E0800890B042FB60B042F00002000A801A7019E
:101E1800A601A5010C30973163278E312000B6004A
:101E28003608A9002908B6002B082C3E8600870131
:101E38003608810009302B0603192A2F2B08013E8A
:101E4800F900003003180130FA002C2FF901FA01CB
:101E58007908B6003608AB00FB010A307B0203188C
:101E6800982F7B082C3E860087010108280203185A
:101E7800522F2608B6003608A5002708B6003608EF
:101E8800A6002808B6003608A7007B082C3E860066
:101E980087010108B6003608A800902F7B082C3E61
:101EA800860087010108270203186B2F2608B60051
:101EB8003608A5002708B6003608A6007B082C3E81
:101EC800860087010108B6003608A700902F7B0816
:101ED8002C3E86008701010826020318802F260859
:101EE800B6003608A5007B082C3E8600870101084D
:101EF800B6003608A600902F7B082C3E8600870186
:101F0800010825020318902F7B082C3E86008701C4
:101F18000108B6003608A5000130B6003608FB07F0
:101F28000A307B02031C352F0430F0000030F1002A
:101F38002508B600B7012608B800B9012808270700
:101F4800BA00BB01BB0D38083A07BC0039083B3D55
:101F5800BD0036083C07F20037083D3DF3009731D5
:101F6800AF278E3170082000BE003E08AA0000305E
:101F78008400983085000008B6003608F6002A0864
:101F8800003E840090300318013E85000008973118
:101F980076278E3102302000B7008630B60099309F
:101FA800890BD42FB60BD42FB70BD42F20008C1944
:101FB800092F80311C28092F8C310C248F31FD000A
:101FC8000D3084008C3085002C308600003087006E
:101FD8000A3097315327FB01FC01A001A101A2019E
:101FE800A301A401A501A601A701A801A901AA01AD
:101FF800AB0120008E31FA2E003400340034003456
:102008000034003400340034003400340034003428
:102018000034003400340034003400340034003418
:102028000034003400340034003400340034003408
:1020380000340034003400340034003400340034F8
:1020480000340034003400340034003400340034E8
:1020580000340034003400340034003400340034D8
:1020680000340034003400340034003400340034C8
:1020780000340034003400340034003400340034B8
:1020880000340034003400340034003400340034A8
:102098000034003400340034003400340034003498
:1020A8000034003400340034013401340134023483
:1020B8000234023402340334033403340434043461
:1020C800043404340534053405340634063406343F
:1020D800063407340734073408340834083408341D
:1020E8000934093409340A340A340A340A340B34FA
:1020F8000B340B340C340C340C340C340D340D34D8
:102108000D340E340E340E340E340F340F340F34B5
:102118001034103410341034113411341134123492
:102128001234123412341334133413341434143470
:10213800143414341534153415341634163416344E
:10214800163417341734173418341834183418342C
:102158001934193419341A341A341A341A341B3409
:102168001B341B341C341C341C341C341D341D34E7
:102178001D341E341E341E341E341E341E341E34C8
:102188001E341E341E34003400340034003400344D
:102198000034003400340034003400340034003497
:1021A8000034003400340034003400340034003487
:1021B8000034DD34DE34DF34E034E134E234E33457
:1021C800E434E534E63400340134023404340634AB
:1021D800083409340A340C340E340F3410341234F1
:1021E8001434163418341A341B341C341D341E3479
:0821F8001E341E341E341E3497
:102EA600FE0012001E00FE0B542F0034FC302100E1
:102EB6009900903027009B0021001A1B08005F2F05
:102EC600F00021001D141D0883399D001D087004A3
:102ED6009D000830890B6D2F21009D149D18712FC0
:102EE6001D101C080800F8007608F7007708F000A7
:102EF60078088C31302497317608F7007708F0008F
:102F060078088C31962497317608F7007708F00018
:102F160078088C31FC2497317608F7007708F000A2
:102F260078088D31622597317608F7007708F0002A
:102F360078088D31C82597317608F7007708F000B4
:102F460078088E312E2697317608F7007708F0003C
:102F560078088E3194260800F601F11FB92FF00982
:102F6600F109F00A0319F10AF601F60AF31FC42F54
:102F7600F209F309F20A0319F30A0130F40074089E
:102F8600F606F701F801700871040319F32FF5012D
:102F9600F50AF11BD82F0130F035F10D890BCF2F33
:102FA6000130F4007408F507CC2F0130F735F80D21
:102FB600890BD92F71087302031DE32F7008720263
:102FC600031CEA2F7008F2027108F33B77140130F4
:102FD600F136F00C890BEB2F0130F502031DD82FCB
:102FE60076080319FB2FF709F809F70A0319F80AF7
:0C2FF6007808F1007708F00008001E3495
:020000040001F9
:04000E0084C9CFDFF3
:00000001FF
