:0A18080000008C31072C8F31E42F13
:10181A004034F00021001D141D0883399D001D0865
:10182A0070049D000830890B182C21009D149D1806
:10183A001C2C1D101C080800F10022008E17103005
:10184A00F0004430890B272CF00B272C003271034F
:10185A00FF3AFF3EF0007008F200720803193D2CAF
:10186A001030890B362C0130F2027208031D352C18
:10187A0022008E130800F300700803190800730889
:10188A007002031C4B2CF401F501522C7D08F10067
:10189A00F2017108F4007208F5007408F100710889
:1018AA002000A0000830F1007108FB007B08031932
:1018BA006C2C0E1400000000A01F0E100000000087
:1018CA00A0350E100130FB027B08031D5E2C7C083C
:1018DA00F10071082000A0000830F1007108FB0037
:1018EA007B080319862C0E1400000000A01F0E109E
:1018FA0000000000A0350E100130FB027B08031D1A
:10190A00782C20002508F1007108A0000830F100A9
:10191A007108FB007B080319A02C0E1400000000BC
:10192A00A01F0E1000000000A0350E100130FB02AF
:10193A007B08031D922C0130F002412CF300700841
:10194A000319080073087002031CAE2CF401F50198
:10195A00B52C7D08F100F2017108F4007208F50057
:10196A007408F10071082000A0000830F100710825
:10197A00FB007B080319CF2C8E1400000000A01F67
:10198A008E1000000000A0358E100130FB027B088B
:10199A00031DC12C7C08F10071082000A00008304A
:1019AA00F1007108FB007B080319E92C8E14000072
:1019BA000000A01F8E1000000000A0358E1001301C
:1019CA00FB027B08031DDB2C20002508F1007108AF
:1019DA00A0000830F1007108FB007B080319032DF1
:1019EA008E1400000000A01F8E1000000000A03519
:1019FA008E100130FB027B08031DF52C0130F0022A
:101A0A00A42CF30070080319080073087002031C61
:101A1A00112DF401F501182D7D08F100F20171086C
:101A2A00F4007208F5007408F10071082000A000A3
:101A3A000830F1007108FB007B080319322D0E15DE
:101A4A0000000000A01F0E1100000000A0350E11BA
:101A5A000130FB027B08031D242D7C08F10071086C
:101A6A002000A0000830F1007108FB007B08031970
:101A7A004C2D0E1500000000A01F0E1100000000E2
:101A8A00A0350E110130FB027B08031D3E2D2000FC
:101A9A002508F1007108A0000830F1007108FB0068
:101AAA007B080319662D0E1500000000A01F0E11F9
:101ABA0000000000A0350E110130FB027B08031D57
:101ACA00582D0130F002072DF300700803190800A1
:101ADA0073087002031C742DF401F5017B2D7D0837
:101AEA00F100F2017108F4007208F5007408F100BF
:101AFA0071082000A0000830F1007108FB007B0883
:101B0A000319952D8E1500000000A01F8E110000EC
:101B1A000000A0358E110130FB027B08031D872DC2
:101B2A007C08F10071082000A0000830F10071085B
:101B3A00FB007B080319AF2D8E1500000000A01FC3
:101B4A008E1100000000A0358E110130FB027B08C7
:101B5A00031DA12D20002508F1007108A0000830FE
:101B6A00F1007108FB007B080319C92D8E150000CE
:101B7A000000A01F8E1100000000A0358E11013058
:101B8A00FB027B08031DBB2D0130F0026A2DF30016
:101B9A0070080319080073087002031CD72DF4019A
:101BAA00F501DE2D7D08F100F2017108F4007208DA
:101BBA00F5007408F10071082000A0000830F10057
:101BCA007108FB007B080319F82D0E1600000000AF
:101BDA00A01F0E1200000000A0350E120130FB02F9
:101BEA007B08031DEA2D7C08F10071082000A00083
:101BFA000830F1007108FB007B080319122E0E163B
:101C0A0000000000A01F0E1200000000A0350E12F6
:101C1A000130FB027B08031D042E20002508F10079
:101C2A007108A0000830F1007108FB007B08031955
:101C3A002C2E0E1600000000A01F0E12000000003D
:101C4A00A0350E120130FB027B08031D1E2E013047
:101C5A00F002CD2DF3007008031908007308700212
:101C6A00031C3A2EF401F501412E7D08F100F20120
:101C7A007108F4007208F5007408F1007108200078
:101C8A00A0000830F1007108FB007B0803195B2EE5
:101C9A008E1600000000A01F8E1200000000A03562
:101CAA008E120130FB027B08031D4D2E7C08F100C9
:101CBA0071082000A0000830F1007108FB007B08C1
:101CCA000319752E8E1600000000A01F8E12000048
:101CDA000000A0358E120130FB027B08031D672E1F
:101CEA0020002508F1007108A0000830F1007108F1
:101CFA00FB007B0803198F2E8E1600000000A01F20
:101D0A008E1200000000A0358E120130FB027B0803
:101D1A00031D812E0130F002302EF30070080319E2
:101D2A00080073087002031C9D2EF401F501A42E0D
:101D3A007D08F100F2017108F4007208F5007408D8
:101D4A00F10071082000A0000830F1007108FB00C2
:101D5A007B080319BE2E0E1700000000A01F0E13E9
:101D6A0000000000A0350E130130FB027B08031DA2
:101D7A00B02E7C08F10071082000A0000830F100A4
:101D8A007108FB007B080319D82E0E17000000000B
:101D9A00A01F0E1300000000A0350E130130FB0235
:101DAA007B08031DCA2E20002508F1007108A00037
:101DBA000830F1007108FB007B080319F22E0E1798
:101DCA0000000000A01F0E1300000000A0350E1333
:101DDA000130FB027B08031DE42E0130F002932E32
:101DEA00973149278E3197315D278E310430200093
:101DFA00B7001C30890BFF2EB70BFF2E0000200006
:101E0A00A901A801A701A6010C308C310E248E313C
:101E1A002000B7003708AA002A08B7002C082D3E70
:101E2A00860087013708810009302C060319252FFF
:101E3A002C08013EF900003003180130FA00272F60
:101E4A00F901FA017908B7003708AC00FB010A303A
:101E5A007B020318932F7B082D3E86008701010819
:101E6A00290203184D2F2708B7003708A6002808AB
:101E7A00B7003708A7002908B7003708A8007B0869
:101E8A002D3E860087010108B7003708A9008B2F6D
:101E9A007B082D3E86008701010828020318662F59
:101EAA002708B7003708A6002808B7003708A70090
:101EBA007B082D3E860087010108B7003708A80075
:101ECA008B2F7B082D3E8600870101082702031805
:101EDA007B2F2708B7003708A6007B082D3E86000F
:101EEA0087010108B7003708A7008B2F7B082D3E12
:101EFA00860087010108260203188B2F7B082D3ED6
:101F0A00860087010108B7003708A6000130B7002C
:101F1A003708FB070A307B02031C302F0430F0001D
:101F2A000030F1002608B700B8012708B900BA0145
:101F3A0029082807BB00BC01BC0D39083B07BD00B6
:101F4A003A083C3DBE0037083D07F20038083E3DDE
:101F5A00F3009731AF278E3170082000BF003F0889
:101F6A00AB0000308400983085000008B7003708BD
:101F7A00F6002B08003E840090300318013E8500CD
:101F8A000008973176278E31200021088C312124D0
:101F9A008E3120008C19D62FFF30B7003708A100E8
:101FAA00D72FA10102302000B8008630B70099303F
:101FBA00890BDD2FB70BDD2FB80BDD2F042F8C31EA
:101FCA000D248F31FD0053308400973085002D3069
:101FDA008600003087000A30973143278F31FB0192
:101FEA00FC0120308400003085000D3097313D27F8
:101FFA0020008E31F52E00340034003400340034D1
:10200A000034003400340034003400340034003426
:10201A000034003400340034003400340034003416
:10202A000034003400340034003400340034003406
:10203A0000340034003400340034003400340034F6
:10204A0000340034003400340034003400340034E6
:10205A0000340034003400340034003400340034D6
:10206A0000340034003400340034003400340034C6
:10207A0000340034003400340034003400340034B6
:10208A0000340034003400340034003400340034A6
:10209A000034003400340034003400345334003443
:1020AA000034003400340134013401340134023480
:1020BA000234023402340234033403340334033462
:1020CA000434043404340434043405340534053443
:1020DA000534063406340634063406340734073425
:1020EA000734073408340834083408340834093407
:1020FA000934093409340A340A340A340A340A34E9
:10210A000B340B340B340B340C340C340C340C34C9
:10211A000C340D340D340D340D340E340E340E34AB
:10212A000E340E340F340F340F340F34103410348D
:10213A00103410341034113411341134113412346F
:10214A001234123412341234133413341334133451
:10215A001334143414341434143414341534153434
:10216A001534153416341634163416341634173416
:10217A0017341734173418341834183418341834F8
:10218A0018341834003400340034CA3400340034AB
:10219A000034003400340034003400340034003495
:1021AA000034003400340034003400340034DC34A9
:1021BA000034003400340034003400340034003475
:1021CA000034003400340034003400340034003465
:1021DA000034003400340034003400340034003455
:1021EA000034003400340034003400340034003445
:0621FA0000340034003443
:102E7A00640080010131890B3E2F0034FE001200EC
:102E8A001E00FE0B442F0034FC30210099009030C4
:102E9A0027009B0021001A1B08004F2F7F347F3424
:102EAA007F347F347F347F347F347F347F347F3480
:102EBA0057302100950022008C01103023008C002D
:102ECA001F3021008C0022008D0123008D01F0307B
:102EDA0021008D0022008E0123008E0121008E0127
:102EEA000800F8007608F7007708F00078088C31B7
:102EFA00402497317608F7007708F00078088C317B
:102F0A00A32497317608F7007708F00078088D3106
:102F1A00062597317608F7007708F00078088D3192
:102F2A00692597317608F7007708F00078088D311F
:102F3A00CC2597317608F7007708F00078088E31AB
:102F4A002F2697317608F7007708F00078088E3137
:102F5A0092260800F601F11FB92FF009F109F00ACB
:102F6A000319F10AF601F60AF31FC42FF209F3094D
:102F7A00F20A0319F30A0130F4007408F606F7019D
:102F8A00F801700871040319F32FF501F50AF11B12
:102F9A00D82F0130F035F10D890BCF2F0130F40015
:102FAA007408F507CC2F0130F735F80D890BD92FA6
:102FBA0071087302031DE32F70087202031CEA2FC3
:102FCA007008F2027108F33B77140130F136F00C05
:102FDA00890BEB2F0130F502031DD82F7608031950
:102FEA00FB2FF709F809F70A0319F80A7808F1001C
:082FFA007708F000080018340C
:020000040001F9
:04000E0084C9CFDFF3
:00000001FF
